{
  "_format": "hh-sol-artifact-1",
  "contractName": "PayloadPortal",
  "sourceName": "contracts/PayloadPortal.sol",
  "abi": [
    {
      "inputs": [],
      "stateMutability": "nonpayable",
      "type": "constructor"
    },
    {
      "anonymous": false,
      "inputs": [
        {
          "indexed": true,
          "internalType": "address",
          "name": "from",
          "type": "address"
        },
        {
          "indexed": true,
          "internalType": "address",
          "name": "to",
          "type": "address"
        },
        {
          "indexed": false,
          "internalType": "string",
          "name": "text",
          "type": "string"
        },
        {
          "indexed": false,
          "internalType": "string",
          "name": "url",
          "type": "string"
        },
        {
          "indexed": false,
          "internalType": "uint256",
          "name": "timestamp",
          "type": "uint256"
        }
      ],
      "name": "NewPayload",
      "type": "event"
    },
    {
      "inputs": [],
      "name": "getAllPayloads",
      "outputs": [
        {
          "components": [
            {
              "internalType": "address",
              "name": "sender",
              "type": "address"
            },
            {
              "internalType": "address",
              "name": "reciever",
              "type": "address"
            },
            {
              "internalType": "string",
              "name": "text",
              "type": "string"
            },
            {
              "internalType": "string",
              "name": "url",
              "type": "string"
            },
            {
              "internalType": "uint256",
              "name": "timestamp",
              "type": "uint256"
            }
          ],
          "internalType": "struct PayloadPortal.Payload[]",
          "name": "",
          "type": "tuple[]"
        }
      ],
      "stateMutability": "view",
      "type": "function"
    },
    {
      "inputs": [],
      "name": "getTotalPayloads",
      "outputs": [
        {
          "internalType": "uint256",
          "name": "",
          "type": "uint256"
        }
      ],
      "stateMutability": "view",
      "type": "function"
    },
    {
      "inputs": [
        {
          "internalType": "address",
          "name": "_to",
          "type": "address"
        },
        {
          "internalType": "string",
          "name": "_text",
          "type": "string"
        },
        {
          "internalType": "string",
          "name": "_url",
          "type": "string"
        }
      ],
      "name": "payload",
      "outputs": [],
      "stateMutability": "nonpayable",
      "type": "function"
    }
  ],
  "bytecode": "0x60806040523480156200001157600080fd5b506200004160405180606001604052806025815260200162000f3a602591396200004760201b620004fb1760201c565b620001db565b620000e7816040516024016200005e919062000154565b6040516020818303038152906040527f41304fac000000000000000000000000000000000000000000000000000000007bffffffffffffffffffffffffffffffffffffffffffffffffffffffff19166020820180517bffffffffffffffffffffffffffffffffffffffffffffffffffffffff8381831617835250505050620000ea60201b60201c565b50565b60008151905060006a636f6e736f6c652e6c6f679050602083016000808483855afa5050505050565b6000620001208262000178565b6200012c818562000183565b93506200013e81856020860162000194565b6200014981620001ca565b840191505092915050565b6000602082019050818103600083015262000170818462000113565b905092915050565b600081519050919050565b600082825260208201905092915050565b60005b83811015620001b457808201518184015260208101905062000197565b83811115620001c4576000848401525b50505050565b6000601f19601f8301169050919050565b610d4f80620001eb6000396000f3fe608060405234801561001057600080fd5b50600436106100415760003560e01c806366e872b51461004657806390945e4c146100625780639cfb965614610080575b600080fd5b610060600480360381019061005b9190610779565b61009e565b005b61006a610277565b604051610077919061099d565b60405180910390f35b6100886104b0565b6040516100959190610a56565b60405180910390f35b60016000808282546100b09190610b2d565b9250508190555060016040518060a001604052803373ffffffffffffffffffffffffffffffffffffffff1681526020018573ffffffffffffffffffffffffffffffffffffffff16815260200184815260200183815260200142815250908060018154018082558091505060019003906000526020600020906005020160009091909190915060008201518160000160006101000a81548173ffffffffffffffffffffffffffffffffffffffff021916908373ffffffffffffffffffffffffffffffffffffffff16021790555060208201518160010160006101000a81548173ffffffffffffffffffffffffffffffffffffffff021916908373ffffffffffffffffffffffffffffffffffffffff16021790555060408201518160020190805190602001906101df929190610659565b5060608201518160030190805190602001906101fc929190610659565b506080820151816004015550508273ffffffffffffffffffffffffffffffffffffffff163373ffffffffffffffffffffffffffffffffffffffff167f6ab12899247299981e0c27d0b8acdc37c300a96dbdbbdac1ab260879ccbf912784844260405161026a939291906109e1565b60405180910390a3505050565b60606001805480602002602001604051908101604052809291908181526020016000905b828210156104a757838290600052602060002090600502016040518060a00160405290816000820160009054906101000a900473ffffffffffffffffffffffffffffffffffffffff1673ffffffffffffffffffffffffffffffffffffffff1673ffffffffffffffffffffffffffffffffffffffff1681526020016001820160009054906101000a900473ffffffffffffffffffffffffffffffffffffffff1673ffffffffffffffffffffffffffffffffffffffff1673ffffffffffffffffffffffffffffffffffffffff16815260200160028201805461037a90610c01565b80601f01602080910402602001604051908101604052809291908181526020018280546103a690610c01565b80156103f35780601f106103c8576101008083540402835291602001916103f3565b820191906000526020600020905b8154815290600101906020018083116103d657829003601f168201915b5050505050815260200160038201805461040c90610c01565b80601f016020809104026020016040519081016040528092919081815260200182805461043890610c01565b80156104855780601f1061045a57610100808354040283529160200191610485565b820191906000526020600020905b81548152906001019060200180831161046857829003601f168201915b505050505081526020016004820154815250508152602001906001019061029b565b50505050905090565b60006104f36040518060400160405280601a81526020017f5765206861766520256420746f74616c205061796c6f61647321000000000000815250600054610594565b600054905090565b6105918160405160240161050f91906109bf565b6040516020818303038152906040527f41304fac000000000000000000000000000000000000000000000000000000007bffffffffffffffffffffffffffffffffffffffffffffffffffffffff19166020820180517bffffffffffffffffffffffffffffffffffffffffffffffffffffffff8381831617835250505050610630565b50565b61062c82826040516024016105aa929190610a26565b6040516020818303038152906040527f9710a9d0000000000000000000000000000000000000000000000000000000007bffffffffffffffffffffffffffffffffffffffffffffffffffffffff19166020820180517bffffffffffffffffffffffffffffffffffffffffffffffffffffffff8381831617835250505050610630565b5050565b60008151905060006a636f6e736f6c652e6c6f679050602083016000808483855afa5050505050565b82805461066590610c01565b90600052602060002090601f01602090048101928261068757600085556106ce565b82601f106106a057805160ff19168380011785556106ce565b828001600101855582156106ce579182015b828111156106cd5782518255916020019190600101906106b2565b5b5090506106db91906106df565b5090565b5b808211156106f85760008160009055506001016106e0565b5090565b600061070f61070a84610a96565b610a71565b90508281526020810184848401111561072757600080fd5b610732848285610bbf565b509392505050565b60008135905061074981610d02565b92915050565b600082601f83011261076057600080fd5b81356107708482602086016106fc565b91505092915050565b60008060006060848603121561078e57600080fd5b600061079c8682870161073a565b935050602084013567ffffffffffffffff8111156107b957600080fd5b6107c58682870161074f565b925050604084013567ffffffffffffffff8111156107e257600080fd5b6107ee8682870161074f565b9150509250925092565b60006108048383610902565b905092915050565b61081581610b83565b82525050565b600061082682610ad7565b6108308185610afa565b93508360208202850161084285610ac7565b8060005b8581101561087e578484038952815161085f85826107f8565b945061086a83610aed565b925060208a01995050600181019050610846565b50829750879550505050505092915050565b600061089b82610ae2565b6108a58185610b0b565b93506108b5818560208601610bce565b6108be81610cf1565b840191505092915050565b60006108d482610ae2565b6108de8185610b1c565b93506108ee818560208601610bce565b6108f781610cf1565b840191505092915050565b600060a08301600083015161091a600086018261080c565b50602083015161092d602086018261080c565b50604083015184820360408601526109458282610890565b9150506060830151848203606086015261095f8282610890565b9150506080830151610974608086018261097f565b508091505092915050565b61098881610bb5565b82525050565b61099781610bb5565b82525050565b600060208201905081810360008301526109b7818461081b565b905092915050565b600060208201905081810360008301526109d981846108c9565b905092915050565b600060608201905081810360008301526109fb81866108c9565b90508181036020830152610a0f81856108c9565b9050610a1e604083018461098e565b949350505050565b60006040820190508181036000830152610a4081856108c9565b9050610a4f602083018461098e565b9392505050565b6000602082019050610a6b600083018461098e565b92915050565b6000610a7b610a8c565b9050610a878282610c33565b919050565b6000604051905090565b600067ffffffffffffffff821115610ab157610ab0610cc2565b5b610aba82610cf1565b9050602081019050919050565b6000819050602082019050919050565b600081519050919050565b600081519050919050565b6000602082019050919050565b600082825260208201905092915050565b600082825260208201905092915050565b600082825260208201905092915050565b6000610b3882610bb5565b9150610b4383610bb5565b9250827fffffffffffffffffffffffffffffffffffffffffffffffffffffffffffffffff03821115610b7857610b77610c64565b5b828201905092915050565b6000610b8e82610b95565b9050919050565b600073ffffffffffffffffffffffffffffffffffffffff82169050919050565b6000819050919050565b82818337600083830152505050565b60005b83811015610bec578082015181840152602081019050610bd1565b83811115610bfb576000848401525b50505050565b60006002820490506001821680610c1957607f821691505b60208210811415610c2d57610c2c610c93565b5b50919050565b610c3c82610cf1565b810181811067ffffffffffffffff82111715610c5b57610c5a610cc2565b5b80604052505050565b7f4e487b7100000000000000000000000000000000000000000000000000000000600052601160045260246000fd5b7f4e487b7100000000000000000000000000000000000000000000000000000000600052602260045260246000fd5b7f4e487b7100000000000000000000000000000000000000000000000000000000600052604160045260246000fd5b6000601f19601f8301169050919050565b610d0b81610b83565b8114610d1657600080fd5b5056fea264697066735822122006be1d01b6b54d5dd6d4b7116f7abfeac722126e26068641c1bf20f124cbd65f64736f6c63430008040033596f20796f2c204920616d206120636f6e747261637420616e64204920616d20736d617274",
  "linkReferences": {},
  "deployedLinkReferences": {}
}