{
  "_format": "hh-sol-artifact-1",
  "contractName": "PayloadPortal",
  "sourceName": "contracts/PayloadPortal.sol",
  "abi": [
    {
      "inputs": [],
      "stateMutability": "payable",
      "type": "constructor"
    },
    {
      "anonymous": false,
      "inputs": [
        {
          "indexed": true,
          "internalType": "address",
          "name": "from",
          "type": "address"
        },
        {
          "indexed": true,
          "internalType": "address",
          "name": "to",
          "type": "address"
        },
        {
          "indexed": false,
          "internalType": "string",
          "name": "text",
          "type": "string"
        },
        {
          "indexed": false,
          "internalType": "string",
          "name": "url",
          "type": "string"
        },
        {
          "indexed": false,
          "internalType": "uint256",
          "name": "timestamp",
          "type": "uint256"
        }
      ],
      "name": "NewPayload",
      "type": "event"
    },
    {
      "inputs": [],
      "name": "getAllPayloads",
      "outputs": [
        {
          "components": [
            {
              "internalType": "address",
              "name": "sender",
              "type": "address"
            },
            {
              "internalType": "address",
              "name": "reciever",
              "type": "address"
            },
            {
              "internalType": "string",
              "name": "text",
              "type": "string"
            },
            {
              "internalType": "string",
              "name": "url",
              "type": "string"
            },
            {
              "internalType": "uint256",
              "name": "timestamp",
              "type": "uint256"
            }
          ],
          "internalType": "struct PayloadPortal.Payload[]",
          "name": "",
          "type": "tuple[]"
        }
      ],
      "stateMutability": "view",
      "type": "function"
    },
    {
      "inputs": [],
      "name": "getTotalPayloads",
      "outputs": [
        {
          "internalType": "uint256",
          "name": "",
          "type": "uint256"
        }
      ],
      "stateMutability": "view",
      "type": "function"
    },
    {
      "inputs": [
        {
          "internalType": "address",
          "name": "_to",
          "type": "address"
        },
        {
          "internalType": "string",
          "name": "_text",
          "type": "string"
        },
        {
          "internalType": "string",
          "name": "_url",
          "type": "string"
        }
      ],
      "name": "payload",
      "outputs": [],
      "stateMutability": "nonpayable",
      "type": "function"
    }
  ],
  "bytecode": "0x60806040526200003360405180606001604052806025815260200162001192602591396200003960201b620005f71760201c565b620001cd565b620000d98160405160240162000050919062000146565b6040516020818303038152906040527f41304fac000000000000000000000000000000000000000000000000000000007bffffffffffffffffffffffffffffffffffffffffffffffffffffffff19166020820180517bffffffffffffffffffffffffffffffffffffffffffffffffffffffff8381831617835250505050620000dc60201b60201c565b50565b60008151905060006a636f6e736f6c652e6c6f679050602083016000808483855afa5050505050565b600062000112826200016a565b6200011e818562000175565b93506200013081856020860162000186565b6200013b81620001bc565b840191505092915050565b6000602082019050818103600083015262000162818462000105565b905092915050565b600081519050919050565b600082825260208201905092915050565b60005b83811015620001a657808201518184015260208101905062000189565b83811115620001b6576000848401525b50505050565b6000601f19601f8301169050919050565b610fb580620001dd6000396000f3fe608060405234801561001057600080fd5b50600436106100415760003560e01c806366e872b51461004657806390945e4c146100625780639cfb965614610080575b600080fd5b610060600480360381019061005b9190610875565b61009e565b005b61006a610373565b6040516100779190610b17565b60405180910390f35b6100886105ac565b6040516100959190610c10565b60405180910390f35b60016000808282546100b09190610cf2565b9250508190555060016040518060a001604052803373ffffffffffffffffffffffffffffffffffffffff1681526020018573ffffffffffffffffffffffffffffffffffffffff16815260200184815260200183815260200142815250908060018154018082558091505060019003906000526020600020906005020160009091909190915060008201518160000160006101000a81548173ffffffffffffffffffffffffffffffffffffffff021916908373ffffffffffffffffffffffffffffffffffffffff16021790555060208201518160010160006101000a81548173ffffffffffffffffffffffffffffffffffffffff021916908373ffffffffffffffffffffffffffffffffffffffff16021790555060408201518160020190805190602001906101df929190610755565b5060608201518160030190805190602001906101fc929190610755565b506080820151816004015550508273ffffffffffffffffffffffffffffffffffffffff163373ffffffffffffffffffffffffffffffffffffffff167f6ab12899247299981e0c27d0b8acdc37c300a96dbdbbdac1ab260879ccbf912784844260405161026a93929190610b5b565b60405180910390a36000655af3107a40009050478111156102c0576040517f08c379a00000000000000000000000000000000000000000000000000000000081526004016102b790610bd0565b60405180910390fd5b60003373ffffffffffffffffffffffffffffffffffffffff16826040516102e690610b02565b60006040518083038185875af1925050503d8060008114610323576040519150601f19603f3d011682016040523d82523d6000602084013e610328565b606091505b505090508061036c576040517f08c379a000000000000000000000000000000000000000000000000000000000815260040161036390610bf0565b60405180910390fd5b5050505050565b60606001805480602002602001604051908101604052809291908181526020016000905b828210156105a357838290600052602060002090600502016040518060a00160405290816000820160009054906101000a900473ffffffffffffffffffffffffffffffffffffffff1673ffffffffffffffffffffffffffffffffffffffff1673ffffffffffffffffffffffffffffffffffffffff1681526020016001820160009054906101000a900473ffffffffffffffffffffffffffffffffffffffff1673ffffffffffffffffffffffffffffffffffffffff1673ffffffffffffffffffffffffffffffffffffffff16815260200160028201805461047690610dc6565b80601f01602080910402602001604051908101604052809291908181526020018280546104a290610dc6565b80156104ef5780601f106104c4576101008083540402835291602001916104ef565b820191906000526020600020905b8154815290600101906020018083116104d257829003601f168201915b5050505050815260200160038201805461050890610dc6565b80601f016020809104026020016040519081016040528092919081815260200182805461053490610dc6565b80156105815780601f1061055657610100808354040283529160200191610581565b820191906000526020600020905b81548152906001019060200180831161056457829003601f168201915b5050505050815260200160048201548152505081526020019060010190610397565b50505050905090565b60006105ef6040518060400160405280601a81526020017f5765206861766520256420746f74616c205061796c6f61647321000000000000815250600054610690565b600054905090565b61068d8160405160240161060b9190610b39565b6040516020818303038152906040527f41304fac000000000000000000000000000000000000000000000000000000007bffffffffffffffffffffffffffffffffffffffffffffffffffffffff19166020820180517bffffffffffffffffffffffffffffffffffffffffffffffffffffffff838183161783525050505061072c565b50565b61072882826040516024016106a6929190610ba0565b6040516020818303038152906040527f9710a9d0000000000000000000000000000000000000000000000000000000007bffffffffffffffffffffffffffffffffffffffffffffffffffffffff19166020820180517bffffffffffffffffffffffffffffffffffffffffffffffffffffffff838183161783525050505061072c565b5050565b60008151905060006a636f6e736f6c652e6c6f679050602083016000808483855afa5050505050565b82805461076190610dc6565b90600052602060002090601f01602090048101928261078357600085556107ca565b82601f1061079c57805160ff19168380011785556107ca565b828001600101855582156107ca579182015b828111156107c95782518255916020019190600101906107ae565b5b5090506107d791906107db565b5090565b5b808211156107f45760008160009055506001016107dc565b5090565b600061080b61080684610c50565b610c2b565b90508281526020810184848401111561082357600080fd5b61082e848285610d84565b509392505050565b60008135905061084581610f68565b92915050565b600082601f83011261085c57600080fd5b813561086c8482602086016107f8565b91505092915050565b60008060006060848603121561088a57600080fd5b600061089886828701610836565b935050602084013567ffffffffffffffff8111156108b557600080fd5b6108c18682870161084b565b925050604084013567ffffffffffffffff8111156108de57600080fd5b6108ea8682870161084b565b9150509250925092565b60006109008383610a67565b905092915050565b61091181610d48565b82525050565b600061092282610c91565b61092c8185610cb4565b93508360208202850161093e85610c81565b8060005b8581101561097a578484038952815161095b85826108f4565b945061096683610ca7565b925060208a01995050600181019050610942565b50829750879550505050505092915050565b600061099782610c9c565b6109a18185610cd0565b93506109b1818560208601610d93565b6109ba81610eb6565b840191505092915050565b60006109d082610c9c565b6109da8185610ce1565b93506109ea818560208601610d93565b6109f381610eb6565b840191505092915050565b6000610a0b603483610ce1565b9150610a1682610ec7565b604082019050919050565b6000610a2e602783610ce1565b9150610a3982610f16565b604082019050919050565b6000610a51600083610cc5565b9150610a5c82610f65565b600082019050919050565b600060a083016000830151610a7f6000860182610908565b506020830151610a926020860182610908565b5060408301518482036040860152610aaa828261098c565b91505060608301518482036060860152610ac4828261098c565b9150506080830151610ad96080860182610ae4565b508091505092915050565b610aed81610d7a565b82525050565b610afc81610d7a565b82525050565b6000610b0d82610a44565b9150819050919050565b60006020820190508181036000830152610b318184610917565b905092915050565b60006020820190508181036000830152610b5381846109c5565b905092915050565b60006060820190508181036000830152610b7581866109c5565b90508181036020830152610b8981856109c5565b9050610b986040830184610af3565b949350505050565b60006040820190508181036000830152610bba81856109c5565b9050610bc96020830184610af3565b9392505050565b60006020820190508181036000830152610be9816109fe565b9050919050565b60006020820190508181036000830152610c0981610a21565b9050919050565b6000602082019050610c256000830184610af3565b92915050565b6000610c35610c46565b9050610c418282610df8565b919050565b6000604051905090565b600067ffffffffffffffff821115610c6b57610c6a610e87565b5b610c7482610eb6565b9050602081019050919050565b6000819050602082019050919050565b600081519050919050565b600081519050919050565b6000602082019050919050565b600082825260208201905092915050565b600081905092915050565b600082825260208201905092915050565b600082825260208201905092915050565b6000610cfd82610d7a565b9150610d0883610d7a565b9250827fffffffffffffffffffffffffffffffffffffffffffffffffffffffffffffffff03821115610d3d57610d3c610e29565b5b828201905092915050565b6000610d5382610d5a565b9050919050565b600073ffffffffffffffffffffffffffffffffffffffff82169050919050565b6000819050919050565b82818337600083830152505050565b60005b83811015610db1578082015181840152602081019050610d96565b83811115610dc0576000848401525b50505050565b60006002820490506001821680610dde57607f821691505b60208210811415610df257610df1610e58565b5b50919050565b610e0182610eb6565b810181811067ffffffffffffffff82111715610e2057610e1f610e87565b5b80604052505050565b7f4e487b7100000000000000000000000000000000000000000000000000000000600052601160045260246000fd5b7f4e487b7100000000000000000000000000000000000000000000000000000000600052602260045260246000fd5b7f4e487b7100000000000000000000000000000000000000000000000000000000600052604160045260246000fd5b6000601f19601f8301169050919050565b7f547279696e6720746f207769746864726177206d6f7265206d6f6e657920746860008201527f616e2074686520636f6e7472616374206861732e000000000000000000000000602082015250565b7f4661696c656420746f207769746864726177206d6f6e65792066726f6d20636f60008201527f6e74726163742e00000000000000000000000000000000000000000000000000602082015250565b50565b610f7181610d48565b8114610f7c57600080fd5b5056fea2646970667358221220b1f4371a079f84fde6b8af76f171f47d9deefb62239ca3e72a197e4b3337f78364736f6c63430008040033596f20796f2c204920616d206120636f6e747261637420616e64204920616d20736d617274",
  "linkReferences": {},
  "deployedLinkReferences": {}
}