{
  "_format": "hh-sol-artifact-1",
  "contractName": "PayloadPortal",
  "sourceName": "contracts/PayloadPortal.sol",
  "abi": [
    {
      "inputs": [],
      "stateMutability": "nonpayable",
      "type": "constructor"
    },
    {
      "anonymous": false,
      "inputs": [
        {
          "indexed": true,
          "internalType": "address",
          "name": "from",
          "type": "address"
        },
        {
          "indexed": false,
          "internalType": "string",
          "name": "text",
          "type": "string"
        },
        {
          "indexed": false,
          "internalType": "string",
          "name": "url",
          "type": "string"
        },
        {
          "indexed": false,
          "internalType": "uint256",
          "name": "timestamp",
          "type": "uint256"
        }
      ],
      "name": "NewPayload",
      "type": "event"
    },
    {
      "inputs": [],
      "name": "getAllPayloads",
      "outputs": [
        {
          "components": [
            {
              "internalType": "address",
              "name": "sender",
              "type": "address"
            },
            {
              "internalType": "string",
              "name": "text",
              "type": "string"
            },
            {
              "internalType": "string",
              "name": "url",
              "type": "string"
            },
            {
              "internalType": "uint256",
              "name": "timestamp",
              "type": "uint256"
            }
          ],
          "internalType": "struct PayloadPortal.Payload[]",
          "name": "",
          "type": "tuple[]"
        }
      ],
      "stateMutability": "view",
      "type": "function"
    },
    {
      "inputs": [],
      "name": "getTotalPayloads",
      "outputs": [
        {
          "internalType": "uint256",
          "name": "",
          "type": "uint256"
        }
      ],
      "stateMutability": "view",
      "type": "function"
    },
    {
      "inputs": [
        {
          "internalType": "string",
          "name": "_text",
          "type": "string"
        },
        {
          "internalType": "string",
          "name": "_url",
          "type": "string"
        }
      ],
      "name": "payload",
      "outputs": [],
      "stateMutability": "nonpayable",
      "type": "function"
    }
  ],
  "bytecode": "0x60806040523480156200001157600080fd5b506200004160405180606001604052806025815260200162000e17602591396200004760201b6200042a1760201c565b620001db565b620000e7816040516024016200005e919062000154565b6040516020818303038152906040527f41304fac000000000000000000000000000000000000000000000000000000007bffffffffffffffffffffffffffffffffffffffffffffffffffffffff19166020820180517bffffffffffffffffffffffffffffffffffffffffffffffffffffffff8381831617835250505050620000ea60201b60201c565b50565b60008151905060006a636f6e736f6c652e6c6f679050602083016000808483855afa5050505050565b6000620001208262000178565b6200012c818562000183565b93506200013e81856020860162000194565b6200014981620001ca565b840191505092915050565b6000602082019050818103600083015262000170818462000113565b905092915050565b600081519050919050565b600082825260208201905092915050565b60005b83811015620001b457808201518184015260208101905062000197565b83811115620001c4576000848401525b50505050565b6000601f19601f8301169050919050565b610c2c80620001eb6000396000f3fe608060405234801561001057600080fd5b50600436106100415760003560e01c806390945e4c146100465780639cfb965614610064578063d6a2bb7814610082575b600080fd5b61004e61009e565b60405161005b9190610891565b60405180910390f35b61006c610281565b604051610079919061094a565b60405180910390f35b61009c60048036038101906100979190610693565b6102cc565b005b60606001805480602002602001604051908101604052809291908181526020016000905b8282101561027857838290600052602060002090600402016040518060800160405290816000820160009054906101000a900473ffffffffffffffffffffffffffffffffffffffff1673ffffffffffffffffffffffffffffffffffffffff1673ffffffffffffffffffffffffffffffffffffffff16815260200160018201805461014b90610af5565b80601f016020809104026020016040519081016040528092919081815260200182805461017790610af5565b80156101c45780601f10610199576101008083540402835291602001916101c4565b820191906000526020600020905b8154815290600101906020018083116101a757829003601f168201915b505050505081526020016002820180546101dd90610af5565b80601f016020809104026020016040519081016040528092919081815260200182805461020990610af5565b80156102565780601f1061022b57610100808354040283529160200191610256565b820191906000526020600020905b81548152906001019060200180831161023957829003601f168201915b50505050508152602001600382015481525050815260200190600101906100c2565b50505050905090565b60006102c46040518060400160405280601a81526020017f5765206861766520256420746f74616c205061796c6f616473210000000000008152506000546104c3565b600054905090565b60016000808282546102de9190610a21565b92505081905550600160405180608001604052803373ffffffffffffffffffffffffffffffffffffffff16815260200184815260200183815260200142815250908060018154018082558091505060019003906000526020600020906004020160009091909190915060008201518160000160006101000a81548173ffffffffffffffffffffffffffffffffffffffff021916908373ffffffffffffffffffffffffffffffffffffffff16021790555060208201518160010190805190602001906103aa929190610588565b5060408201518160020190805190602001906103c7929190610588565b506060820151816003015550503373ffffffffffffffffffffffffffffffffffffffff167fda124f0fc2757f5e476fbce5b18b41da66cd67d89863e5591efb42a32668190283834260405161041e939291906108d5565b60405180910390a25050565b6104c08160405160240161043e91906108b3565b6040516020818303038152906040527f41304fac000000000000000000000000000000000000000000000000000000007bffffffffffffffffffffffffffffffffffffffffffffffffffffffff19166020820180517bffffffffffffffffffffffffffffffffffffffffffffffffffffffff838183161783525050505061055f565b50565b61055b82826040516024016104d992919061091a565b6040516020818303038152906040527f9710a9d0000000000000000000000000000000000000000000000000000000007bffffffffffffffffffffffffffffffffffffffffffffffffffffffff19166020820180517bffffffffffffffffffffffffffffffffffffffffffffffffffffffff838183161783525050505061055f565b5050565b60008151905060006a636f6e736f6c652e6c6f679050602083016000808483855afa5050505050565b82805461059490610af5565b90600052602060002090601f0160209004810192826105b657600085556105fd565b82601f106105cf57805160ff19168380011785556105fd565b828001600101855582156105fd579182015b828111156105fc5782518255916020019190600101906105e1565b5b50905061060a919061060e565b5090565b5b8082111561062757600081600090555060010161060f565b5090565b600061063e6106398461098a565b610965565b90508281526020810184848401111561065657600080fd5b610661848285610ab3565b509392505050565b600082601f83011261067a57600080fd5b813561068a84826020860161062b565b91505092915050565b600080604083850312156106a657600080fd5b600083013567ffffffffffffffff8111156106c057600080fd5b6106cc85828601610669565b925050602083013567ffffffffffffffff8111156106e957600080fd5b6106f585828601610669565b9150509250929050565b600061070b8383610809565b905092915050565b61071c81610a77565b82525050565b600061072d826109cb565b61073781856109ee565b935083602082028501610749856109bb565b8060005b85811015610785578484038952815161076685826106ff565b9450610771836109e1565b925060208a0199505060018101905061074d565b50829750879550505050505092915050565b60006107a2826109d6565b6107ac81856109ff565b93506107bc818560208601610ac2565b6107c581610be5565b840191505092915050565b60006107db826109d6565b6107e58185610a10565b93506107f5818560208601610ac2565b6107fe81610be5565b840191505092915050565b60006080830160008301516108216000860182610713565b50602083015184820360208601526108398282610797565b915050604083015184820360408601526108538282610797565b91505060608301516108686060860182610873565b508091505092915050565b61087c81610aa9565b82525050565b61088b81610aa9565b82525050565b600060208201905081810360008301526108ab8184610722565b905092915050565b600060208201905081810360008301526108cd81846107d0565b905092915050565b600060608201905081810360008301526108ef81866107d0565b9050818103602083015261090381856107d0565b90506109126040830184610882565b949350505050565b6000604082019050818103600083015261093481856107d0565b90506109436020830184610882565b9392505050565b600060208201905061095f6000830184610882565b92915050565b600061096f610980565b905061097b8282610b27565b919050565b6000604051905090565b600067ffffffffffffffff8211156109a5576109a4610bb6565b5b6109ae82610be5565b9050602081019050919050565b6000819050602082019050919050565b600081519050919050565b600081519050919050565b6000602082019050919050565b600082825260208201905092915050565b600082825260208201905092915050565b600082825260208201905092915050565b6000610a2c82610aa9565b9150610a3783610aa9565b9250827fffffffffffffffffffffffffffffffffffffffffffffffffffffffffffffffff03821115610a6c57610a6b610b58565b5b828201905092915050565b6000610a8282610a89565b9050919050565b600073ffffffffffffffffffffffffffffffffffffffff82169050919050565b6000819050919050565b82818337600083830152505050565b60005b83811015610ae0578082015181840152602081019050610ac5565b83811115610aef576000848401525b50505050565b60006002820490506001821680610b0d57607f821691505b60208210811415610b2157610b20610b87565b5b50919050565b610b3082610be5565b810181811067ffffffffffffffff82111715610b4f57610b4e610bb6565b5b80604052505050565b7f4e487b7100000000000000000000000000000000000000000000000000000000600052601160045260246000fd5b7f4e487b7100000000000000000000000000000000000000000000000000000000600052602260045260246000fd5b7f4e487b7100000000000000000000000000000000000000000000000000000000600052604160045260246000fd5b6000601f19601f830116905091905056fea2646970667358221220dce5019282543473d472cda78fdb8708b93fb3c47b92b4c01027e27eb97b707964736f6c63430008040033596f20796f2c204920616d206120636f6e747261637420616e64204920616d20736d617274",
  "linkReferences": {},
  "deployedLinkReferences": {}
}